{
  "contractName": "RewardContract",
  "abi": [
    {
      "inputs": [],
      "payable": false,
      "stateMutability": "nonpayable",
      "type": "constructor"
    },
    {
      "constant": true,
      "inputs": [],
      "name": "owner",
      "outputs": [
        {
          "internalType": "address",
          "name": "",
          "type": "address"
        }
      ],
      "payable": false,
      "stateMutability": "view",
      "type": "function"
    },
    {
      "constant": false,
      "inputs": [
        {
          "internalType": "address payable",
          "name": "user",
          "type": "address"
        }
      ],
      "name": "reward",
      "outputs": [],
      "payable": true,
      "stateMutability": "payable",
      "type": "function"
    }
  ],
  "bytecode": "0x608060405234801561001057600080fd5b50600080546001600160a01b03191633179055610159806100326000396000f3fe6080604052600436106100295760003560e01c80636353586b1461002e5780638da5cb5b14610056575b600080fd5b6100546004803603602081101561004457600080fd5b50356001600160a01b0316610087565b005b34801561006257600080fd5b5061006b610115565b604080516001600160a01b039092168252519081900360200190f35b600034116100dc576040805162461bcd60e51b815260206004820152601c60248201527f4e6f2045746865722073656e7420666f72207468652072657761726400000000604482015290519081900360640190fd5b6040516001600160a01b038216903480156108fc02916000818181858888f19350505050158015610111573d6000803e3d6000fd5b5050565b6000546001600160a01b03168156fea265627a7a723158208bc9d4b876dd7022d29b8207631ac9fe3a546f04d3469fbdfdb71032e29b764864736f6c63430005100032",
  "source": "// SPDX-License-Identifier: MIT\r\npragma solidity >=0.4.22 <0.9.0;\r\n\r\ncontract RewardContract {\r\n    address public owner;\r\n\r\n    constructor() public{\r\n        owner = msg.sender; \r\n    }\r\n\r\n    \r\n    function reward(address payable user) public payable {\r\n        require(msg.value > 0, \"No Ether sent for the reward\");\r\n        user.transfer(msg.value); \r\n    }\r\n\r\n    \r\n}\r\n",
  "sourcePath": "D:\\Technical\\Syntax error\\contracts\\RewardContract.sol",
  "compiler": {
    "name": "solc",
    "version": "0.5.16+commit.9c3226ce.Emscripten.clang"
  },
  "schemaVersion": "3.4.16",
  "updatedAt": "2024-10-19T15:31:25.511Z",
  "networkType": "ethereum",
  "devdoc": {
    "methods": {}
  },
  "userdoc": {
    "methods": {}
  }
}